{
  "addressA": "mnw6zWurXDo2GUT8w6Tx933c3LNLCHe9bC",
  "addressB": "mrzSdeAAaLrhUHArebcyt9UrJ2QfJmxzJN",
  "addressC": "mmaubp9g9iaM19gk4rnTJEhnCvhCnMJY7i",
  "fundingTxid": "e186bba556710ba24210a770757ac8fb04effa09d7f862c9396c601d07f5f9fd",
  "txidAtoB": {
    "txid": "d2153ddb01557451182abef28049c83905f832bb781da6767552a9f8aebe440d",
    "rawHex": "0200000001fdf9f5071d606c39c962f8d709faef04fbc87a7570a71042a20b7156a5bb86e1000000006a4730440220437fd42be0181867e3d1386f2a9be0a77aa7a9338bed801830fca67d8b39822902205eb723130e0f8e99de32f9c157c9fdf9383c71bb0ba2907682bcdf75c8589ebb012103fa3064d4e3368c7376ca0c34f7a1cf6fd17f4b51b0e84e0c4ad3ddbbeb1a5bccffffffff0280f0fa02000000001976a9147ddc450c8dd929b04c3aed59822d6ddca4e84a8088ac70c9fa02000000001976a914515a1fbd77df9cf36f5a60e7061af6ed1536d2df88ac00000000",
    "decoded": {
      "txid": "77a4b9e58f4a93782e7320517cd5f9ff9dd88e8f797e1fd157b67d39265a56cc",
      "hash": "77a4b9e58f4a93782e7320517cd5f9ff9dd88e8f797e1fd157b67d39265a56cc",
      "version": 2,
      "size": 119,
      "vsize": 119,
      "weight": 476,
      "locktime": 0,
      "vin": [
        {
          "txid": "e186bba556710ba24210a770757ac8fb04effa09d7f862c9396c601d07f5f9fd",
          "vout": 0,
          "scriptSig": {
            "asm": "",
            "hex": ""
          },
          "sequence": 4294967295
        }
      ],
      "vout": [
        {
          "value": 0.5,
          "n": 0,
          "scriptPubKey": {
            "asm": "OP_DUP OP_HASH160 7ddc450c8dd929b04c3aed59822d6ddca4e84a80 OP_EQUALVERIFY OP_CHECKSIG",
            "desc": "addr(mrzSdeAAaLrhUHArebcyt9UrJ2QfJmxzJN)#3wasmdqc",
            "hex": "76a9147ddc450c8dd929b04c3aed59822d6ddca4e84a8088ac",
            "address": "mrzSdeAAaLrhUHArebcyt9UrJ2QfJmxzJN",
            "type": "pubkeyhash"
          }
        },
        {
          "value": 0.4999,
          "n": 1,
          "scriptPubKey": {
            "asm": "OP_DUP OP_HASH160 515a1fbd77df9cf36f5a60e7061af6ed1536d2df OP_EQUALVERIFY OP_CHECKSIG",
            "desc": "addr(mnw6zWurXDo2GUT8w6Tx933c3LNLCHe9bC)#euw3vv2s",
            "hex": "76a914515a1fbd77df9cf36f5a60e7061af6ed1536d2df88ac",
            "address": "mnw6zWurXDo2GUT8w6Tx933c3LNLCHe9bC",
            "type": "pubkeyhash"
          }
        }
      ]
    }
  },
  "txidBtoC": {
    "txid": "7da38581369c7445becd0622b98f6ff6dec1ba84efdc29c3412b731401807734",
    "rawHex": "02000000010d44beaef8a9527576a61d78bb32f80539c84980f2be2a1851745501db3d15d2000000006a473044022065565eb1aaab2d5e434ce9c03c9694ac06264b7d92451838909d7454a38b405d0220082f5abdbad3ecac3ad8552524f5ed0dda03956d7a94d868d20f047e562eabbe01210347132e9f4e9b9ad8665e14d856e76373e0dfb60fe946b1c0048f9fc8d9a807a6ffffffff02002d3101000000001976a91442902b7d4a887af52356c3ece66d2d028e464df988ac709cc901000000001976a9147ddc450c8dd929b04c3aed59822d6ddca4e84a8088ac00000000",
    "decoded": {
      "txid": "7da38581369c7445becd0622b98f6ff6dec1ba84efdc29c3412b731401807734",
      "hash": "7da38581369c7445becd0622b98f6ff6dec1ba84efdc29c3412b731401807734",
      "version": 2,
      "size": 225,
      "vsize": 225,
      "weight": 900,
      "locktime": 0,
      "vin": [
        {
          "txid": "d2153ddb01557451182abef28049c83905f832bb781da6767552a9f8aebe440d",
          "vout": 0,
          "scriptSig": {
            "asm": "3044022065565eb1aaab2d5e434ce9c03c9694ac06264b7d92451838909d7454a38b405d0220082f5abdbad3ecac3ad8552524f5ed0dda03956d7a94d868d20f047e562eabbe[ALL] 0347132e9f4e9b9ad8665e14d856e76373e0dfb60fe946b1c0048f9fc8d9a807a6",
            "hex": "473044022065565eb1aaab2d5e434ce9c03c9694ac06264b7d92451838909d7454a38b405d0220082f5abdbad3ecac3ad8552524f5ed0dda03956d7a94d868d20f047e562eabbe01210347132e9f4e9b9ad8665e14d856e76373e0dfb60fe946b1c0048f9fc8d9a807a6"
          },
          "sequence": 4294967295
        }
      ],
      "vout": [
        {
          "value": 0.2,
          "n": 0,
          "scriptPubKey": {
            "asm": "OP_DUP OP_HASH160 42902b7d4a887af52356c3ece66d2d028e464df9 OP_EQUALVERIFY OP_CHECKSIG",
            "desc": "addr(mmaubp9g9iaM19gk4rnTJEhnCvhCnMJY7i)#88xsg7jh",
            "hex": "76a91442902b7d4a887af52356c3ece66d2d028e464df988ac",
            "address": "mmaubp9g9iaM19gk4rnTJEhnCvhCnMJY7i",
            "type": "pubkeyhash"
          }
        },
        {
          "value": 0.2999,
          "n": 1,
          "scriptPubKey": {
            "asm": "OP_DUP OP_HASH160 7ddc450c8dd929b04c3aed59822d6ddca4e84a80 OP_EQUALVERIFY OP_CHECKSIG",
            "desc": "addr(mrzSdeAAaLrhUHArebcyt9UrJ2QfJmxzJN)#3wasmdqc",
            "hex": "76a9147ddc450c8dd929b04c3aed59822d6ddca4e84a8088ac",
            "address": "mrzSdeAAaLrhUHArebcyt9UrJ2QfJmxzJN",
            "type": "pubkeyhash"
          }
        }
      ]
    }
  }
}
